:020000040000FA
:100000004BC065C064C063C062C061C060C05FC0F7
:100010005EC05DC05CC05BC05AC059C058C057C00C
:10002000D9C055C054C053C052C051C050C04FC0B9
:100030004EC04DC000000000250028002B0000002D
:100040000000240027002A000000000023002600F2
:10005000290004040404040404040202020202024B
:1000600003030303030302020301020408102040F8
:100070008001020408102001020408102040804082
:100080000000000900030200000405080000000051
:10009000000000000000000011241FBECFEFD4E0DC
:1000A000DEBFCDBF11E0A0E0B1E0EEE6F5E002C0BA
:1000B00005900D92A631B107D9F721E0A6E1B1E094
:1000C00001C01D92A732B207E1F7CED04EC298CF41
:1000D000843081F028F48230E9F08330F9F008951B
:1000E000883071F0893091F08530B9F480918000CA
:1000F0008F7D03C0809180008F778093800008956A
:100100008091B0008F778093B00008958091B00007
:100110008F7DF9CF84B58F7784BD089584B58F7DA9
:10012000FBCFCF93DF93282F30E0F901E058FF4F4A
:100130008491F901E759FF4FD491F901EE5AFF4F2D
:10014000C491CC2399F08111C3DFEC2FF0E0EE0FC6
:10015000FF1FE85BFF4FA591B491EC91ED2381E087
:1001600090E009F480E0DF91CF91089580E090E085
:10017000FACFCF93DF9390E0FC01E759FF4F249132
:100180008E5A9F4FFC0184918823D1F090E0880F14
:10019000991FFC01E25CFF4FA591B491FC01EC5C5E
:1001A000FF4FC591D491623071F49FB7F8943C91A0
:1001B000822F809583238C93E8812E2B28839FBFE9
:1001C000DF91CF9108958FB7F894EC912E2B2C935B
:1001D0008FBFF6CF1F920F920FB60F9211242F935D
:1001E0003F938F939F93AF93BF93809123019091FF
:1001F0002401A0912501B09126013091220128E12E
:10020000230F2D3768F12BE9230F0996A11DB11D8E
:10021000209322018093230190932401A093250130
:10022000B093260180911E0190911F01A0912001A1
:10023000B09121010196A11DB11D80931E019093E3
:100240001F01A0932001B0932101BF91AF919F9115
:100250008F913F912F910F900FBE0F901F90189587
:100260000896A11DB11DD4CF789480E880936100D9
:1002700092E09093610084B5836084BD85B583600E
:1002800085BD80916E00816080936E0090938100A7
:10029000809180008160809380008091B1008460B3
:1002A0008093B1008091B00081608093B00084E8B9
:1002B00080937A001092C10061E083E05ADF62E02F
:1002C00082E057DF62E084E054DF06E111E0C2E043
:1002D000D1E08881229661E04CDF0C171D07C9F739
:1002E0001092B0001092B1001092700017BA809175
:1002F000B00083628093B0008091B10089608093E8
:10030000B1008FE48093B3001092B40023E6822EF4
:10031000912CA12CB12C30E0C32E30E0D32E8FB71E
:10032000F894409023015090240160902501709032
:1003300026018FBF82E0F5DE892B59F580911A01E5
:1003400090911B01A0911C01B0911D01A30192018C
:10035000281B390B4A0B5B0BDA01C9018536910565
:10036000A105B105B0F080910001909101010596C1
:100370008436910514F083E690E090930101809318
:10038000000140921A0150921B0160921C01709270
:100390001D0184E0C6DE892B59F5809116019091EC
:1003A0001701A0911801B0911901A3019201281B16
:1003B000390B4A0B5B0BDA01C90185369105A105A2
:1003C000B105B0F0809100019091010105971816D8
:1003D000190614F081E090E09093010180930001F0
:1003E0004092160150921701609218017092190103
:1003F0002091000130910101032E000C440B550B9C
:100400002150310941095109AEE4B0E076D0A5018F
:10041000940157D02F5F3F4F4F4F5F4F2093B40051
:100420002091000130910101032E000C440B550B6B
:100430002150310941095109A9E0B0E05ED0A50180
:1004400094013FD02F5F3F4F4F4F5F4FE90192E044
:10045000E92E91E0F92E10E000E0F7014191519171
:100460007F015527FA01E058FF4F8491FA01E759BF
:10047000FF4F7490FA01EE5AFF4F64906620A1F08E
:10048000811126DEE62DF0E0EE0FFF1FEC5CFF4F42
:10049000A591B4918FB7F894EC910C171D077CF0DF
:1004A00070947E227C928FBF0F5F1F4F0A30110520
:1004B000A1F6C114D10409F432CFA2DD30CF7E2AD7
:1004C000F1CF052E97FB16F400940FD057FD05D001
:1004D0001ED007FC02D046F408C0509540953095D8
:1004E00021953F4F4F4F5F4F0895909580957095A0
:1004F00061957F4F8F4F9F4F08952BD0A59F900DF3
:10050000B49F900DA49F800D911D11240895A1E228
:100510001A2EAA1BBB1BFD010DC0AA1FBB1FEE1F7D
:10052000FF1FA217B307E407F50720F0A21BB30BC8
:10053000E40BF50B661F771F881F991F1A9469F744
:1005400060957095809590959B01AC01BD01CF01A0
:100550000895A29FB001B39FC001A39F01D0B29F95
:10056000700D811D1124911D0895F894FFCF320064
:10057000050006000700080009000A000B000C0037
:040580000000010076
:101E8000112424B614BE80E07ED021FED2C08EE0A4
:101E90007AD0E0ECF0E0AFE7BFEF4899FECF909644
:101EA000489BFDCFB4831197F1F7B2E0B083B8E15E
:101EB000B18357D0C82F823559F46BD0E0E8FEE1EA
:101EC000E054F109A89583E089D03097C9F73FC065
:101ED0008D7FF1F453D0D82FA0E0B1E042D08D93A4
:101EE000DA13FCCF56D0C1110FC0A0E0B1E0F999D0
:101EF000FECF1FBAF2BDE1BD8D9180BDFA9AF99A6D
:101F00003196DA13F4CF23C0A0E0B1E04CD01FC06B
:101F1000C33041F433D0C82F3CD085911BD0C15081
:101F2000E1F715C0C13071F429D0C82F32D0F9992A
:101F3000FECFF2BDE1BDF89A80B50CD03196C1500C
:101F4000B1F705C0C13511F488E01DD022D081E57C
:101F500001D0AFCF9091C00095FFFCCF8093C60019
:101F600008952D9A259A8091C00087FFFCCF84FDAB
:101F700013C0A8958091C6002D980895F2DFE82F30
:101F8000F0DFF82FEECF98E190936000809360002F
:101F90000895E7DF803219F088E0F5DFFFCF80EAAF
:101FA000D9CFFB01DC0160E46A0F9F01E0388EE1CC
:101FB000F807C8F483E012D0309629F48FE38D93AC
:101FC0008FEC8C93119781E00D901D9007D0329685
:101FD000A613FACFF90185E001D081E187BFE8952A
:0A1FE00007B600FCFDCF11240895A0
:061FFA000619D2CFE73FFB
:00000001FF
